:020000040800F2
:10000000000001203D200008A5090008A7090008FC
:10001000A9090008AB090008AD09000800000000AC
:10002000000000000000000000000000AF09000810
:10003000B109000800000000B3090008B509000874
:1000400085200008852000088520000885200008FC
:1000500085200008852000088520000885200008EC
:1000600085200008852000088520000885200008DC
:1000700085200008852000088520000885200008CC
:1000800085200008852000088520000885200008BC
:1000900085200008852000088520000885200008AC
:1000A000852000088520000885200008852000089C
:1000B000852000088520000885200008852000088C
:1000C000852000088520000885200008852000087C
:1000D000852000088520000885200008852000086C
:1000E000852000088520000885200008852000085C
:1000F000852000088520000885200008852000084C
:10010000852000088520000885200008852000083B
:10011000852000088520000885200008852000082B
:10012000852000088520000885200008852000081B
:1001300000000000000000000000000000000000BF
:1001400000000000000000000000000000000000AF
:10015000000000000000000000000000000000009F
:10016000000000000000000000000000000000008F
:10017000000000000000000000000000000000007F
:10018000000000000000000000000000000000006F
:10019000000000000000000000000000000000005F
:1001A000000000000000000000000000000000004F
:1001B000000000000000000000000000000000003F
:1001C000000000000000000000000000000000002F
:1001D000000000000000000000000000000000001F
:0401E0005FF8E0F1F3
:1001E40053B94AB9002908BF00281CBF4FF0FF319A
:1001F4004FF0FF3000F00CB8ADF1080C6DE904CEFF
:1002040001F092FFDDF804E0DDE9022304B0704759
:10021400704700BF0348044B834202D0034B03B131
:10022400184770470C0000200C000020000000005C
:100234000548064B1B1AD90F01EBA301491002D044
:10024400034B03B1184770470C0000200C0000203A
:100254000000000010B5064C237843B9FFF7DAFF1D
:10026400044B13B10448AFF300800123237010BD85
:1002740010000020000000004424000808B5054BCD
:100284001BB105490548AFF30080BDE80840FFF7FE
:10029400CFBF00BF00000000140000204424000869
:1002A4002DE9F0418CB008AC0026089609960A9610
:1002B4000B96444B9A6942F040029A619A6902F0A3
:1002C40040020192019A9A6942F010029A619A6975
:1002D40002F010020292029A9A6942F080029A6134
:1002E4009A6902F080020392039A9A6942F0040226
:1002F4009A619A6902F004020492049A9A6942F09B
:1003040008029A619A6902F008020592059A9A69AC
:1003140042F480729A619A6902F480720692069A93
:100324009A6942F020029A619B6903F020030793C3
:10033400079BDFF8948001222021404601F05CF8FD
:100344004FF6FF7708970325099521461F4800F0CB
:1003540055FF43F6FF730893099521461C4800F0A6
:100364004DFF0897099521461A4800F047FF41F6CA
:10037400FF73089309952146174800F03FFF4FF695
:10038400D773089309952146404600F037FF089734
:1003940009952146114800F031FF08970995214637
:1003A4000F4800F02BFF20230893012309930A969A
:1003B40002230B932146404600F020FF0CB0BDE819
:1003C400F08100BF00100240000C01400018014001
:1003D40000100140001C01400008014000200140C1
:1003E400001401402DE9F04FADF27C6D0023CDF8EF
:1003F4002836A84ACDF830260122CDF82C26CDF88F
:100404003426CDF8243604A801F02DFD01F0B6F809
:1004140090BB82468046DFF87C924F464E460546A6
:1004240083469D4B9B4500F2ED8000220292CBF562
:10043400852202F51372ABF58523A3F50B73202BEC
:1004440000D9202202AB0BF1006101F5205104A870
:1004540001F020FDB8B9029BABB19B4403AB002271
:100464001A6040220DF5C76104A801F055FD031E72
:1004740001930EDB002430E0884B00221A600DF259
:100484007C6DBDE8F08F01F093F8844B00221A6074
:10049400F5E701F08DF8814B00221A60EFE701F0D7
:1004A40087F87E4B00221A60E9E701F081F87B4B64
:1004B40000221A60E3E701F07BF8784B00221A600F
:1004C400DDE7B8F1000F21D104F5CF636B4413F8D5
:1004D40040AC01354FF001080134039BA3422DD9F0
:1004E400B5F56A3FDBD24E45EBD36D4B9F42DCD86A
:1004F400CDF830760DF224610DF5C56001F00AF9EE
:100504000028D8D107F50067B946DAE704F5CF63C8
:100514006B4413F8402C4AEA022292B2002331467B
:10052400012001F083F8804610B902360135D3E783
:1005340001F03EF8594B00221A60A0E7019B012B01
:100544008CD06EE701F034F8544B00221A6096E721
:1005540001F02EF8514B00221A6090E701F028F8C0
:100564004E4B00221A608AE701F022F84B4B00221E
:100574001A6084E701F01CF8484B00221A607EE7F9
:10058400B8F1000F21D104F5CF636B4413F840ACEC
:1005940001354FF001080134039BA3422DD9B5F571
:1005A4006A3FDBD24E45EBD33D4B9F42DCD8CDF8BE
:1005B40030760DF224610DF5C56001F0ABF800282A
:1005C400D8D107F50067B946DAE704F5CF636B4481
:1005D40013F8402C4AEA022292B200233146012049
:1005E40001F024F8804610B902360135D3E700F053
:1005F400DFFF2A4B00221A6041E7BBF1010F07D04D
:10060400019B9BB104A801F005FD031E019399DB36
:1006140003AB00221A6040220DF5C76104A801F063
:100624007BFCB0F1000B93DB0024B5E7B8F1000FBD
:1006340019D0B5F56A3F1BD24E450BD3184B9F42D8
:100644001CD8CDF830760DF224610DF5C56001F0AB
:1006540061F8C8B96AF0FF0292B200233146012062
:1006640000F0E4FFF0B900F0A3FF0C4B1D6006E7B7
:1006740000F09EFF094B00221A6000E700F098FF8B
:10068400064B00221A60FAE600F092FF034B0022A8
:100694001A60F4E6005804084B2A040030000020D5
:1006A400FFFF070800F084FF014B00221A60E6E612
:1006B400300000202DE9F04FE7B0002352936C4A3C
:1006C4005492012253925592519305A801F070F966
:1006D40000F054FF88BB82468046DFF894914F4671
:1006E4004E4605468346634B9B4500F288800022B4
:1006F4000392CBF51E3202F23712ABF51E33A3F28E
:100704001713202B00D9202203AB0BF1006101F554
:100714008B2105A801F060F9A8B9039B9BB19B4408
:1007240004AB00221A60402256A905A801F07DF905
:10073400031E01930DDB00242FE04F4B00221A60AF
:1007440067B0BDE8F08F00F033FF4B4B00221A6016
:10075400F6E700F02DFF484B00221A60F0E700F0A6
:1007640027FF454B00221A60EAE700F021FF424BC5
:1007740000221A60E4E700F01BFF3F4B00221A60DE
:10078400DEE7B8F1000F1ED104F5CC736B4413F807
:1007940040AC01354FF001080134049BA3422AD92F
:1007A400364B9D42DBD84E45EBD3354B9F42DCD2D2
:1007B400549751A952A800F0ADFF0028DBD107F5EA
:1007C4000067B946DDE704F5CC736B4413F8402C9D
:1007D4004AEA022292B200233146012000F026FFA9
:1007E400804610B902360135D6E700F0E1FE224B0F
:1007F40000221A60A4E7019B012B91D073E7B8F1A2
:10080400000F17D01D4B9D4219D84E4508D31C4BE1
:100814009F421AD2549751A952A800F07BFFD0B935
:100824006AF0FF0292B200233146012000F0FEFE7E
:10083400B8B9013500F0BCFE0F4B1D6080E700F035
:10084400B7FE0D4B00221A607AE700F0B1FE0A4BA6
:1008540000221A6074E700F0ABFE074B00221A6016
:100864006EE700F0A5FE044B00221A6068E700BFA3
:100874000028000836790200300000204B2A0400CA
:100884000058040872B6FEE710B590B006AC2822F2
:100894000021204601F00EFC0023019302930393F0
:1008A40004930593012206924FF4803307930A922E
:1008B40002220D920E934FF4E0130F93204600F0A2
:1008C400B3F970B90F2301930221029103904FF4FD
:1008D40080620492059001A800F0DAFB18B910B008
:1008E40010BDFFF7CFFFFFF7CDFF000030B583B099
:1008F40000F04CF9FFF7C8FFFFF7D2FC00F07EF8D8
:10090400244B019300238DF8033029E000238DF854
:10091400033000F0A1F80446FFF764FD0199204676
:1009240000F0D0F81C4B1860204600F0B3F800F03B
:1009340093F804462021194800F064FD01992046EB
:1009440000F0C0F8144D28604FF4FA7000F042F93A
:100954000199204600F0B6F82860204600F09AF885
:100964009DF80330012BD1D09DF80330022BDED14A
:1009740000238DF8033000F06FF80446FFF79AFE69
:100984000199204600F09EF8034B1860204600F0C1
:1009940081F8CCE7A08601002C000020000C014067
:1009A400FEE7FEE7FEE7FEE7FEE7704770477047A5
:1009B40008B500F0FDF808BD82B00E4B9A6942F00C
:1009C40001029A619A6902F001020092009ADA69BE
:1009D40042F08052DA61DB6903F080530193019B9A
:1009E400054A536823F0E06343F08073536002B018
:1009F400704700BF0010024000000140124B1B78FA
:100A040003BB1249D1F8FC2042F08072C1F8FC20EB
:100A14000F4A536011E00F4A03EB43014FEA810C84
:100A240002EB81010020087242F80C0003EB430141
:100A340002EB810250600133DBB2032BEBD9024B92
:100A440001221A70704700BF3400002000ED00E05E
:100A5400001000E0380000200020032813D800EB29
:100A640040020A4B03EB82031B7A13B10130C0B27C
:100A7400F3E7074B5968054B43F8221003EB820355
:100A840001221A727047FF20704700BF380000200F
:100A9400001000E003280FD800EB4002074B03EBE3
:100AA40082031B7A43B1064B5968044B03EB820261
:100AB4005160134600221A72704700BF38000020AC
:100AC400001000E0032831D810B503460C4609B9DC
:100AD40001221446164A1068D0B103EB4301154AAB
:100AE40002EB8102127AA2B1134A516803EB430369
:100AF400104A52F82330A1EB030C1049024600239C
:100B0400ACFB0101FFF76CFB22460023FFF768FBF7
:100B140010BD084903EB430201EB8202526803EB68
:100B2400430351F82330A2EB030CE6E7002070479F
:100B34000800002038000020001000E000CA9A3BA2
:100B440010B504460E4B18680E4B1A784FF47A739E
:100B5400B3FBF2F3B0FBF3F000F0B8FC68B90F2C70
:100B640001D901200AE0024621464FF0FF3000F08F
:100B74009DFC054B1C60002000E0012010BD00BF5F
:100B840008000020000000200400002008B5074AE7
:100B9400136843F010031360032000F075FC0F206A
:100BA400FFF7CEFFFFF708FF002008BD002002403A
:100BB400034A1168034B1B780B441360704700BF52
:100BC4006800002000000020014B1868704700BF37
:100BD4006800002038B50446FFF7F6FF0546B4F177
:100BE400FF3F02D0044B1B781C44FFF7EDFF401B72
:100BF400A042FAD338BD00BF0000002082B0084BE9
:100C04001B68084AA2FB03235B0A00FB03F301935E
:100C140000BF019B5A1E0192002BF9D102B070470C
:100C240008000020D34D6210002800F0F38170B555
:100C340082B00446036813F0010F2CD09A4B5B6812
:100C440003F00C03042B1DD0974B5B6803F00C03DB
:100C5400082B12D06368B3F5803F41D0002B55D1E7
:100C640003F1804303F504331A6822F480321A60D6
:100C74001A6822F480221A6037E08B4B5B6813F405
:100C8400803FE7D0884B1B6813F4003F03D06368B0
:100C9400002B00F0C181236813F0020F75D0824B42
:100CA4005B6813F00C0F5FD07F4B5B6803F00C03A1
:100CB400082B54D02369002B00F08A807B4B01223F
:100CC4001A60FFF781FF0546774B1B6813F0020F8C
:100CD40075D1FFF779FF401B0228F5D90320A0E165
:100CE400714A136843F480331360636843B3FFF7B6
:100CF4006BFF05466C4B1B6813F4003FCBD1FFF729
:100D040063FF401B6428F5D903208AE1B3F5A02FC3
:100D140009D0654B1A6822F480321A601A6822F4EA
:100D240080221A60E1E703F18043A3F53C331A689B
:100D340042F480221A601A6842F480321A60D4E7BE
:100D4400FFF742FF0546584B1B6813F4003FA2D03F
:100D5400FFF73AFF401B6428F5D9032061E1524BA9
:100D64005B6813F4803FA5D14F4B1B6813F0020F4F
:100D740003D02369012B40F051814B4A136823F0BF
:100D8400F803616943EAC1031360236813F0080F91
:100D940033D0A369002B5DD0444B0122C3F88024D7
:100DA400FFF712FF0546404B5B6A13F0020F21D197
:100DB400FFF70AFF401B0228F5D9032031E13A4A24
:100DC400136823F0F803616943EAC1031360DCE7A5
:100DD400364B00221A60FFF7F7FE0546324B1B68BC
:100DE40013F0020FD1D0FFF7EFFE401B0228F5D914
:100DF400032016E10120FFF701FF236813F0040F1D
:100E040000F09880284BDB6913F0805F35D1264BC6
:100E1400DA6942F08052DA61DB6903F080530193AE
:100E2400019B01231E46224B1B6813F4807F27D0AD
:100E3400E368012B3ED0002B54D103F1804303F52A
:100E440004331A6A22F001021A621A6A22F00402B6
:100E54001A6234E0154B0022C3F88024FFF7B4FE75
:100E64000546114B5B6A13F0020FC6D0FFF7ACFEC8
:100E7400401B0228F5D90320D3E000231E46D2E705
:100E84000B4A136843F480731360FFF79DFE054615
:100E9400074B1B6813F4807FCAD1FFF795FE401BF4
:100EA4006428F5D90320BCE000100240000042424F
:100EB400007000405F4A136A43F001031362E36861
:100EC40033B3FFF781FE05465A4B1B6A13F0020F3A
:100ED4002FD1FFF779FE401B41F288339842F3D9B2
:100EE40003209EE0052B09D0524B1A6A22F001021E
:100EF4001A621A6A22F004021A62E0E74D4B1A6A77
:100F040042F004021A621A6A42F001021A62D6E737
:100F1400FFF75AFE0546474B1B6A13F0020F08D031
:100F2400FFF752FE401B41F288339842F3D9032065
:100F340077E0E6B9E369002B72D03E4A526802F0CA
:100F44000C02082A56D0022B17D03B4B00221A66FB
:100F5400FFF73AFE0446374B1B6813F0007F47D077
:100F6400FFF732FE001B0228F5D9032059E0314A6D
:100F7400D36923F08053D361DCE72F4B00221A6638
:100F8400FFF722FE05462B4B1B6813F0007F06D0AB
:100F9400FFF71AFE401B0228F5D9032041E0236A1B
:100FA400B3F5803F1AD023494B6823F47413226AA3
:100FB400606A024313434B601F4B01221A66FFF71A
:100FC40003FE04461B4B1B6813F0007F0ED1FFF792
:100FD400FBFD001B0228F5D9032022E0154A5368C3
:100FE40023F40033A1680B435360DCE7002018E0CE
:100FF400002016E0012B16D00E4B5B6803F4803101
:10100400226A914211D103F47013626A93420ED1A1
:10101400002006E001207047012002E0012000E0EA
:10102400184602B070BD0120FBE70120F9E701205A
:10103400F7E700BF00100240000042420F4B5B681C
:1010440003F00C02082A01D00D487047C3F3834211
:101054000C49885C13F4803F0BD0084B5B68C3F3E6
:101064004043094AD35C064A02FB00F0B0FBF3F0AC
:101074007047064B03FB00F0704700BF00100240AE
:1010840000127A00602400085C24000800093D0076
:10109400002800F0A08070B50D460446524B1B6832
:1010A40003F007038B420BD24F4A136823F0070364
:1010B4000B431360136803F007038B4240F08D80E9
:1010C400236813F0020F17D013F0040F04D0474A1B
:1010D400536843F4E0635360236813F0080F04D0AB
:1010E400424A536843F460535360404A536823F0C0
:1010F400F003A1680B435360236813F0010F31D050
:101104006368012B20D0022B25D0384A126812F0D4
:10111400020F64D035494A6822F0030213434B603E
:10112400FFF752FD0646314B5B6803F00C0362681F
:10113400B3EB820F16D0FFF747FD801B41F28833D3
:101144009842F0D9032045E0284A126812F4003F7F
:10115400E0D101203EE0254A126812F0007FD9D187
:10116400012037E0204B1B6803F00703AB420AD988
:101174001D4A136823F007032B431360136803F01D
:101184000703AB422DD1236813F0040F06D0174A8E
:10119400536823F4E063E1680B435360236813F05E
:1011A400080F07D0114A536823F46053216943EAB6
:1011B400C1035360FFF742FF0C4B5B68C3F3031397
:1011C4000B4AD35CD8400B4B18600B4B1868FFF7E5
:1011D400B7FC002070BD012070470120FAE7012010
:1011E400F8E70120F6E700BF0020024000100240AB
:1011F40070240008080000200400002070B582B0AC
:101204004FF0000EF446ACE0012B28D0022B03D1A2
:10121400CB6803F1080E24E01BBB8B68002B6DD058
:10122400012B64D042614FF0080E1AE06C4DAB42C2
:10123400F3D00CD8A5F58015AB42EED005F570259A
:10124400AB42EAD0A5F58015AB42E6D009E0654D86
:10125400AB42E2D005F58035AB42DED001E0D1F8F7
:101264000CE0FF2C4DD806464FEA8C0233680F255C
:10127400954023EA05030EFA02F2134333604B68E8
:1012840013F0805F6BD0584B9A6942F001029A6167
:101294009B6903F001030193019B4FEA9C02951C97
:1012A400524B53F825600CF00305AD000F23AB40FF
:1012B40026EA03064E4B98422AD003F580639842EF
:1012C4006BD003F58063984269D003F5806398423C
:1012D40067D003F58063984265D003F58063984234
:1012E40014D0062315E0CB6803F10C0EB9E70261B4
:1012F4004FF0080EB5E74FF0000EB2E74FF0040EC2
:10130400AFE7061DACF108029200AFE7052300E049
:101314000023AB4033430232344D45F822304B684E
:1013240013F4801F41D0334A9368234393604B687E
:1013340013F4001F3FD02F4AD3682343D3604B6874
:1013440013F4003F3DD02B4A5368234353604B684A
:1013540013F4803F3BD0274A1368234313600CF1F6
:10136400010C0B6833FA0CF237D0012202FA0CF2AA
:1013740003EA020432EA0303F1D14B68032BBAD027
:101384007FF642AF122BAED03FF650AF112B7FF455
:1013940068AFCB6803F1040E63E70123B9E70223C6
:1013A400B7E70323B5E70423B3E7124A936823EAB4
:1013B40004039360BBE70F4AD36823EA0403D360B2
:1013C400BDE70C4A536823EA04035360BFE7094AA4
:1013D400136823EA04031360C1E702B070BD00BFC1
:1013E40000002210000031100010024000000140F3
:1013F40000080140000401400AB10161704709047A
:1014040001617047C36801EA030221EA030141EA6A
:101414000241016170470000002808DB0901C9B2DC
:1014240000F1604000F5614080F80013704700F05F
:101434000F000901C9B2014B1954704714ED00E0C3
:1014440000B500F00700A0F1030CBCF1040F07D8AD
:10145400C0F1070E0430062806D84FF0000C03E054
:101464004FF0040E4FF0000C4FF0FF3303FA0EF070
:1014740021EA000101FA0CF103FA0CF322EA030257
:1014840041EA020000BD0000074AD36823F4E06388
:101494001B041B0C000200F4E060034343F0BF6331
:1014A40043F40033D360704700ED00E010B5044608
:1014B400054BD868C0F30220FFF7C2FF014620465F
:1014C400FFF7AAFF10BD00BF00ED00E00138B0F146
:1014D400807F0BD24FF0E0235861054AF02182F857
:1014E40023100020986107221A6170470120704779
:1014F40000ED00E0044B0022DA61044A136943F072
:101504000103136101807047700000200020024035
:10151400184BDB6813F0100305D0174AD36943F066
:101524000203D3611023134AD26812F0040F06D0C9
:101534001149CA6942F00102CA6143F004030D4A29
:10154400D26912F0010F0DD00B49CA6942F00402AE
:10155400CA610849CA6922F00102CA6140F2011253
:10156400934202D0034AD3607047CB6923F001034E
:10157400CB61704700200240700000200A4B1B69B9
:1015840013F0800F0BD0084B084A5A6002F18832DE
:101594005A601B6913F0800F03D1002070470020AC
:1015A40070470120704700BF0020024023016745B7
:1015B400034A136943F0800313610020704700BF9E
:1015C4000020024038B50446FFF7FEFA0546164BE4
:1015D400DB6813F0010F0AD0B4F1FF3FF7D024B158
:1015E400FFF7F2FA401BA042F1D903201BE00E4B97
:1015F400DB6813F0200F02D00B4B2022DA600A4B79
:10160400DB6813F0100F0BD1074BDB6913F0010FEC
:1016140006D1054BDB6813F0040F01D1002002E072
:10162400FFF776FF012038BD002002402DE9F0418C
:101634001D46244B1B7E012B41D004460E46174603
:10164400204B01221A764CF25030FFF7BBFF0346C1
:1016540078BB012C08D0022C03D04FF004081C46A0
:1016640007E04FF00208FAE74FF00108F7E701340A
:10167400E4B244451DD22101C1F12002A1F12003AD
:1016840027FA01F105FA02F2114325FA03F319438B
:1016940089B206EB4400FFF72DFF4CF25030FFF700
:1016A40091FF094A136923F00103136103460028DB
:1016B400DDD0044A002111761846BDE8F0810223EA
:1016C400FAE700BF7000002000200240064B002211
:1016D400DA61064B1A6942F004021A611A6942F08F
:1016E40040021A61704700BF7000002000200240D1
:1016F400064B0022DA61064B1A6942F002021A61B3
:1017040058611A6942F040021A6170477000002063
:1017140000200240264B1B7E012B46D070B50546A7
:101724000E46234B01221A760368022B20D04CF27A
:101734005030FFF747FF90BB4FF0FF333360AC6886
:101744000121EA68AB6803EBC223A34228D92046EF
:10175400FFF7CEFF4CF25030FFF734FF154A136900
:1017640023F0020313610146B8B904F50064E8E705
:101774004CF25030FFF726FF08B1012110E00120A0
:10178400FFF7A4FF4CF25030FFF71CFF0146094A53
:10179400136923F00403136102E0346000E00121C3
:1017A400034B00221A76084670BD02210846704792
:1017B400700000200020024070470F2939D810B56E
:1017C4000346008888BB1C7B01F1FF3C012202FA1E
:1017D4000CF2944230DB86460FE080221A734000FC
:1017E40080B293F80BC01A7B1CEA020F01D040F0C0
:1017F400010052081A730EF1010E714521DD1A7BA6
:10180400002AECD11C88D4B1B3F802C00CF1010257
:1018140092B25A809C449CF80DC083F80BC0944249
:10182400DBD100225A801A80D7E74FF0000E7046B1
:10183400E3E74FF6FF7070474FF6FF7001E04FF695
:10184400FF7010BD10B504460121FFF7B6FF4FF637
:10185400FF73984205D008B1012010BDE080032039
:10186400FBE70020F9E710B504460021FFF7A5FFC8
:101874004FF6FF73984203D00302E380032010BDA8
:101884000220FCE710B504460821FFF796FF4FF647
:10189400FF73984209D0E38803439BB2E38001338A
:1018A400E3800023A380052010BD0320FCE710B5CE
:1018B4000446FC21FFF781FF4FF6FF73984203D0E3
:1018C4000302A380052010BD0420FCE710B50446E4
:1018D4000421FFF772FF4FF6FF73984207D0A388E5
:1018E40003439BB2A3800133A380062010BD0520CF
:1018F400FCE7086889680B6803F1010CC1F800C0B3
:10190400C254704738B58B681A684B689A4201D341
:10191400012038BD05460C460821FFF74EFF4FF65F
:10192400FF73984201D10120F3E705F12D01C2B202
:101934002B89581C2881DBB2CA5421462846FFF75C
:10194400D8FF0020E5E74B688A6812689B1A2BD001
:101954002DE9F04704460F46B0F80480984500D3BB
:10196400984604F12D06B4F80690002511E0238969
:10197400A3EB0903DBB216F803A05246394620460E
:10198400FFF7B7FF237A06F803A0238901332381E5
:101994000135A845EBD8A388A3EB08039BB2A38029
:1019A40023B10620BDE8F087062070471846F9E702
:1019B40010B504464FF4907200210D3000F07AFB0C
:1019C4000023A3724FF00002238063802273E2722B
:1019D400A380E380238110BDF0B170B51C461E4680
:1019E40084460546D9B1EBB10088D0F1200303D178
:1019F40000232360012070BD934228BF13461C4678
:101A0400083060441A46053000F080FB2B882344DC
:101A14002B8034600020EEE74FF0FF3070474FF02A
:101A2400FF30E8E74FF0FF30E5E7002853D0F0B58A
:101A340085B017461E46054600294FD0002B50D0CE
:101A44000023336001910292039619E06FF00100C4
:101A540005B0F0BD052C2CD0062C2FD0042C04D1BD
:101A64002846FFF724FFA87207E06FF00100EFE7B4
:101A740001A92846FFF746FFA872A97AA14223D0FC
:101A8400AC7A032C10D0E5D8012CF1D0022C06D06E
:101A9400002CDBD12846FFF7D5FEA872EDE72846D7
:101AA400FFF7E1FEA872E8E72846FFF7EBFEA8720D
:101AB400E3E72846FFF70AFFA872DEE701A92846F4
:101AC400FFF741FFA872D8E73368BB4201D000207A
:101AD400BEE70120BCE74FF0FF3070474FF0FF3006
:101AE400B6E74FF0FF30B3E74FF48070704708B5A6
:101AF400FFF7FAFF08BD10207047C07A00F001001C
:101B0400704783681A68406882422CBF0020012015
:101B1400704738B5837B802B0ED005460C460846AB
:101B2400FFF7EFFF50B12168A2681368581C1060DA
:101B34006A7BCA54092038BD0920FCE70820FAE76B
:101B44002DE9F04F06468B469046184606F212479A
:101B5400B91806EB4203B3F912E04FF6FF790024FB
:101B640016E00CF1010C1FFA8CFC844505D212F826
:101B74000CA011F80C309A45F3D0644504D21FFA36
:101B84008EF984451AD0644606EB4505B5F912E092
:101B940075460FFA8BF3AEEB0303002B0FDB07EB59
:101BA4000E0212F804C00B5D9C4504D006EB4E0EE9
:101BB400BEF912E0ECE74FF0010CD6E76446012CC5
:101BC40006D9099B1C80A8EB090080B2BDE8F08F00
:101BD4004FF6FF70FAE72DE9F04184B00446FFF7B1
:101BE40083FF80462046FFF786FF07466688204627
:101BF400FFF783FF2588024630BB3B46EB1A9E4223
:101C040024DC2046FFF773FF321892B24346D11A00
:101C140089B2AB1BBB4201DA9BB21F460023ADF86D
:101C24000E300DF10E0300933B462046FFF788FF6C
:101C34004FF6FF7398420ED0E080BDF80E30A380BB
:101C4400032004B0BDE8F0810123D7E70AB10820DE
:101C5400F7E70720F5E76388013363800023A38057
:101C64000320EEE730B59E46082902D001F1FF3C7F
:101C74000DE0837B802BF9D1DEF80000DEF808103C
:101C84000B685C1C0C60C25430BD0CF1FF3CBCF111
:101C9400000FF9DB012101FA0CF10A4203D0417B68
:101CA400837B19434173817B490881730029ECD1FB
:101CB40080238373DEF80040DEF8083019684D1C79
:101CC4001D60437B635400234373DEE708B50B4672
:101CD4000121FFF7C7FF08BD38B504460D46084685
:101CE400FFF70FFFA0B1A38833B90122294620468C
:101CF400FFF7ECFF04200CE0002229462046FFF702
:101D0400E5FFE388013B23810823A372052000E05B
:101D1400032038BD38B504460B46857A082D0DD905
:101D24000289083D2A41D2B2082529462046FFF7F8
:101D340099FFA37A5B1BA372284638BD027A002D53
:101D4400FAD0F2E738B505460C460846FFF7D9FE47
:101D540008B9052038BD21462846FFF7DBFF30B916
:101D6400AB88013B2B810423AB720620F2E70520EC
:101D7400F0E738B505460C460846FFF7C2FE08B939
:101D8400062038BD21462846FFF7C4FF30B96B88CA
:101D9400AA8813446B80A8800220F2E70620F0E7AB
:101DA40070B504460E464588013DADB2FFF79FFE6F
:101DB400421992B22244334692F812240821204652
:101DC400FFF750FF70BD38B504460D460846FFF7CF
:101DD40098FE08B9042038BD29462046FFF7E0FFE5
:101DE4000220F8E770B5ADF5007D06464FF40072A9
:101DF400FF21684600F05EF906F2124506F112046E
:101E04003046FFF774FE3388184480B2002308E09C
:101E1400E95C3DF911C024F813C02DF811300133E9
:101E24009BB28342F4D30DF5007D70BD38B50446F2
:101E3400FFF75AFE6588431B9BB2C218C11A01F50D
:101E44008261214492B2023104F2124000F019F985
:101E54000023638023885B1B238038BD08B5FFF70C
:101E6400E5FF002008BD10B504464FF400720021C0
:101E740000F2124000F01EF900224FF0000322800D
:101E840023736280E3728021A1736373A280228131
:101E9400A37210BD88B3F0B583B014460646009112
:101EA40071B301937BB3FFF728FE78BB337B83BB0D
:101EB4003046FFF71CFE3788C519ADB23046FFF730
:101EC40013FEC71BBFB2BC4228BF3C46A4B205F5F3
:101ED4008260304422460099023000F017F9019BD9
:101EE4001C60338823443380A74202D0002003B00F
:101EF400F0BD012333730020F9E74FF0FF30704742
:101F04004FF0FF30F3E74FF0FF30F0E76FF00100E0
:101F1400EDE76FF00100EAE700286AD0F0B585B07C
:101F240017461E460546002966D0002B67D0002AB6
:101F340068D0002333600191029203960BE0002CD9
:101F440063D0012C18D12846FFF74CFF02232B73D2
:101F54002B7BA34248D02C7B052C3AD012D8022CE0
:101F64002CD0ECD9032C2ED0042C08D101A928465E
:101F7400FFF729FF2873EBE76FF001000DE06FF026
:101F840001000AE0072C2AD009D9082C12D101A992
:101F94002846FFF7BEFD2873002005B0F0BD062CCF
:101FA40005D101A92846FFF7E4FE2873D0E76FF0B6
:101FB4000100F2E7092C2AD10020EEE72846FFF7BA
:101FC4000AFE2873C4E701A92846FFF785FE287393
:101FD400BEE701A92846FFF7B5FE2873B8E72846EF
:101FE400FFF73CFF2873B3E73368BB42B3D101204A
:101FF400D3E74FF0FF3070474FF0FF30CDE74FF09D
:10200400FF30CAE76FF00100C7E72046C5E76FF06D
:102014000100C2E7034660B1C27A42F00102C27213
:10202400027B0AB901220273187B093818BF012008
:1020340070474FF0FF307047FFF7BEFB0B480C4969
:102044000C4A002302E0D458C4500433C4188C4210
:10205400F9D3094A094C002301E013600432A24277
:10206400FBD300F02FF8FEF741FC7047000000207E
:102074000C00002090240008100000209000002094
:10208400FEE7884210B501EB020402D984422346DC
:1020940007D8431EA14207D011F8012B03F8012FE2
:1020A400F8E70244824200D110BD13F8011D02F882
:1020B400011DF7E703460244934200D1704703F839
:1020C400011BF9E770B500260C4C0D4B1D1BB6EB3C
:1020D400A50F09D1002600F0B3F90A4C0A4B1D1BC9
:1020E400B6EBA50F05D170BD54F8043B98470136F3
:1020F400EDE754F8043B98470136F1E788240008DB
:1021040088240008882400088C2400080A4491428A
:1021140000F1FF3300D1704710B511F8014B914223
:1021240003F8014FF9D110BD2DE9F04707461646D3
:102134000846BC460D46089A002B4FD18E42B6463F
:1021440069D9B6FA86F44CB1C4F12003A54027FA44
:1021540003F306FA04FE1D4307FA04FC4FEA1E4784
:10216400B5FBF7F107FB11551FFA8EF04FEA1C433C
:1021740043EA054301FB00F59D420AD91EEB030324
:1021840001F1FF3680F0F6809D4240F2F38002397F
:1021940073445B1BB3FBF7F507FB153305FB00F03A
:1021A4001FFA8CFC4CEA034C60450AD91EEB0C0C5C
:1021B40005F1FF3380F0E080604540F2DD80F444B7
:1021C400023DACEB000C45EA0140002122B12CFA9F
:1021D40004F30024C2E90034BDE8F0878B4206D939
:1021E4000AB1C2E9007100210846BDE8F087B3FADC
:1021F40083F100294CD1834202D3BE4200F20F8105
:10220400B7EB060C60EB030301201D46002AE3D064
:10221400C2E900C5E0E7002E00F095801C46B6FA3E
:1022240086F3002B40F0AA808D1B0121370CB6B237
:10223400B5FBF7F007FB10554FEA1C4343EA05438F
:1022440006FB00F59D4208D91EEB030300F1FF389D
:1022540002D29D4200F2E88040465B1BB3FBF7F5D7
:1022640007FB15331FFA8CFC4CEA034C06FB05F301
:10227400634508D91EEB0C0C05F1FF3602D2634509
:1022840000F2CF803546ACEB030C45EA00409DE7F5
:10229400C1F120058B4026FA05FC4CEA030C20FA18
:1022A40005F44FEA1C4E06FA01F9B4FBFEF6884029
:1022B40027FA05F303430EFB16401FFA8CF807FABE
:1022C40001FA1F0C47EA004406FB08F0A0420AD9B1
:1022D4001CEB040406F1FF3780F09F80A04240F21B
:1022E4009C80023E6444241AB4FBFEF00EFB1044AE
:1022F40000FB08FE9BB243EA04439E450AD91CEB4B
:10230400030300F1FF3480F086809E4540F2838011
:102314000238634440EA0640A0FB0974A3EB0E03B1
:10232400A342BE46264665D362D052B1BAEB0E0430
:1023340063EB060303FA05F5CC402543CB40C2E921
:102344000053002148E77B0843EAC1734C08190C89
:1023540041EA04419BB2B4FBF6F04FEAC77C43EA7E
:1023640001433546B1FBF6F137461F245D1B41EAB4
:1023740000415DE731460CE71D4622E71C4606FA9C
:1023840003FEC3F1200321FA03F5A04027FA03F367
:1023940007FA04FC4FEA1E470343B5FBF7F007FBBB
:1023A40010551FFA8EF6190C41EA054100FB06F59B
:1023B4008D423ED91EEB010101D28D4221D8491B29
:1023C400B1FBF7F5A84605FB06F5013807FB181124
:1023D4009BB243EA0143AB4229D21EEB030308F14B
:1023E400FF31C3D2AB42C1D2A8F102017344BDE7AD
:1023F400BA459AD2B7EB090E64EB0C0401382646B1
:1024040093E7AEEB05052944B1FBF7F50238A8467E
:1024140005FB06F5DAE720467CE73E4663E7084617
:10242400F4E6F444023D2EE70238734415E74146CE
:102434009CE7491BB1FBF7F5A84605FB06F5C5E784
:10244400F8B500BFF8BC08BC9E467047F8B500BF9D
:08245400F8BC08BC9E4670476D
:10245C000102000002030405060708090A0B0C0D13
:10246C000E0F101000000000000000000102030419
:04247C00060708093E
:08248000ACFCFF7F010000002D
:0424880081020008C5
:04248C0059020008E9
:0C249000010000001000000000127A00A3
:040000050800203D92
:00000001FF
